{
  "contractName": "BaseDAO",
  "abi": [
    {
      "inputs": [
        {
          "internalType": "uint256",
          "name": "_threshold",
          "type": "uint256"
        }
      ],
      "stateMutability": "nonpayable",
      "type": "constructor"
    },
    {
      "anonymous": false,
      "inputs": [
        {
          "indexed": false,
          "internalType": "address",
          "name": "revokedMember",
          "type": "address"
        }
      ],
      "name": "MembershipRevoked",
      "type": "event"
    },
    {
      "anonymous": false,
      "inputs": [
        {
          "indexed": false,
          "internalType": "address",
          "name": "newMember",
          "type": "address"
        }
      ],
      "name": "NewMember",
      "type": "event"
    },
    {
      "anonymous": false,
      "inputs": [
        {
          "indexed": false,
          "internalType": "uint256",
          "name": "propCode",
          "type": "uint256"
        },
        {
          "indexed": false,
          "internalType": "string",
          "name": "voteHash",
          "type": "string"
        }
      ],
      "name": "NewProposal",
      "type": "event"
    },
    {
      "anonymous": false,
      "inputs": [
        {
          "indexed": true,
          "internalType": "address",
          "name": "previousOwner",
          "type": "address"
        },
        {
          "indexed": true,
          "internalType": "address",
          "name": "newOwner",
          "type": "address"
        }
      ],
      "name": "OwnershipTransferred",
      "type": "event"
    },
    {
      "anonymous": false,
      "inputs": [
        {
          "indexed": false,
          "internalType": "address",
          "name": "newWhitelist",
          "type": "address"
        }
      ],
      "name": "TokenWhitelisted",
      "type": "event"
    },
    {
      "anonymous": false,
      "inputs": [
        {
          "indexed": false,
          "internalType": "address",
          "name": "voter",
          "type": "address"
        },
        {
          "indexed": false,
          "internalType": "bool",
          "name": "",
          "type": "bool"
        }
      ],
      "name": "Voted",
      "type": "event"
    },
    {
      "inputs": [
        {
          "internalType": "uint256",
          "name": "",
          "type": "uint256"
        }
      ],
      "name": "TokenWhitelist",
      "outputs": [
        {
          "internalType": "address",
          "name": "",
          "type": "address"
        }
      ],
      "stateMutability": "view",
      "type": "function"
    },
    {
      "inputs": [
        {
          "internalType": "string",
          "name": "",
          "type": "string"
        }
      ],
      "name": "getHash",
      "outputs": [
        {
          "internalType": "uint256",
          "name": "",
          "type": "uint256"
        }
      ],
      "stateMutability": "view",
      "type": "function"
    },
    {
      "inputs": [],
      "name": "memberCount",
      "outputs": [
        {
          "internalType": "uint256",
          "name": "",
          "type": "uint256"
        }
      ],
      "stateMutability": "view",
      "type": "function"
    },
    {
      "inputs": [
        {
          "internalType": "address",
          "name": "",
          "type": "address"
        }
      ],
      "name": "members",
      "outputs": [
        {
          "internalType": "bool",
          "name": "",
          "type": "bool"
        }
      ],
      "stateMutability": "view",
      "type": "function"
    },
    {
      "inputs": [],
      "name": "owner",
      "outputs": [
        {
          "internalType": "address",
          "name": "",
          "type": "address"
        }
      ],
      "stateMutability": "view",
      "type": "function"
    },
    {
      "inputs": [
        {
          "internalType": "uint256",
          "name": "",
          "type": "uint256"
        }
      ],
      "name": "proposals",
      "outputs": [
        {
          "internalType": "address payable",
          "name": "Address",
          "type": "address"
        },
        {
          "internalType": "uint256",
          "name": "PropCode",
          "type": "uint256"
        },
        {
          "internalType": "uint256",
          "name": "Amount",
          "type": "uint256"
        },
        {
          "internalType": "uint256",
          "name": "TokenNumber",
          "type": "uint256"
        },
        {
          "internalType": "string",
          "name": "voteHash",
          "type": "string"
        },
        {
          "internalType": "bool",
          "name": "executed",
          "type": "bool"
        },
        {
          "internalType": "bool",
          "name": "proposalPassed",
          "type": "bool"
        }
      ],
      "stateMutability": "view",
      "type": "function"
    },
    {
      "inputs": [],
      "name": "renounceOwnership",
      "outputs": [],
      "stateMutability": "nonpayable",
      "type": "function"
    },
    {
      "inputs": [],
      "name": "threshold",
      "outputs": [
        {
          "internalType": "uint256",
          "name": "",
          "type": "uint256"
        }
      ],
      "stateMutability": "view",
      "type": "function"
    },
    {
      "inputs": [],
      "name": "tokenID",
      "outputs": [
        {
          "internalType": "uint256",
          "name": "",
          "type": "uint256"
        }
      ],
      "stateMutability": "view",
      "type": "function"
    },
    {
      "inputs": [
        {
          "internalType": "address",
          "name": "newOwner",
          "type": "address"
        }
      ],
      "name": "transferOwnership",
      "outputs": [],
      "stateMutability": "nonpayable",
      "type": "function"
    },
    {
      "inputs": [
        {
          "internalType": "address",
          "name": "_member",
          "type": "address"
        }
      ],
      "name": "_checkIfMember",
      "outputs": [
        {
          "internalType": "bool",
          "name": "",
          "type": "bool"
        }
      ],
      "stateMutability": "view",
      "type": "function"
    },
    {
      "inputs": [
        {
          "internalType": "address",
          "name": "_newMem",
          "type": "address"
        }
      ],
      "name": "addMember",
      "outputs": [],
      "stateMutability": "nonpayable",
      "type": "function"
    },
    {
      "inputs": [
        {
          "internalType": "address",
          "name": "_contract",
          "type": "address"
        }
      ],
      "name": "addNewToken",
      "outputs": [],
      "stateMutability": "nonpayable",
      "type": "function"
    },
    {
      "inputs": [
        {
          "internalType": "address payable",
          "name": "_address",
          "type": "address"
        },
        {
          "internalType": "uint256",
          "name": "_propCode",
          "type": "uint256"
        },
        {
          "internalType": "uint256",
          "name": "_amount",
          "type": "uint256"
        },
        {
          "internalType": "uint256",
          "name": "_tokenNumber",
          "type": "uint256"
        },
        {
          "internalType": "string",
          "name": "_voteHash",
          "type": "string"
        }
      ],
      "name": "createProposal",
      "outputs": [],
      "stateMutability": "nonpayable",
      "type": "function"
    },
    {
      "inputs": [
        {
          "internalType": "uint256",
          "name": "_ProposalID",
          "type": "uint256"
        },
        {
          "internalType": "bool",
          "name": "supportsProposal",
          "type": "bool"
        }
      ],
      "name": "vote",
      "outputs": [],
      "stateMutability": "nonpayable",
      "type": "function"
    }
  ],
  "bytecode": "0x60806040523480156200001157600080fd5b5060405162001ed238038062001ed2833981810160405260208110156200003757600080fd5b810190808051906020019092919050505060006200005a6200011760201b60201c565b9050806000806101000a81548173ffffffffffffffffffffffffffffffffffffffff021916908373ffffffffffffffffffffffffffffffffffffffff1602179055508073ffffffffffffffffffffffffffffffffffffffff16600073ffffffffffffffffffffffffffffffffffffffff167f8be0079c531659141344cd1fd0a4f28419497f9722a3daafe3b4186f6b6457e060405160405180910390a35062000109336200011f60201b60201c565b806003819055505062000269565b600033905090565b6200012f6200011760201b60201c565b73ffffffffffffffffffffffffffffffffffffffff166000809054906101000a900473ffffffffffffffffffffffffffffffffffffffff1673ffffffffffffffffffffffffffffffffffffffff1614620001f1576040517f08c379a00000000000000000000000000000000000000000000000000000000081526004018080602001828103825260208152602001807f4f776e61626c653a2063616c6c6572206973206e6f7420746865206f776e657281525060200191505060405180910390fd5b6001600081548092919060010191905055507fb4dcb6dd550f27b5917ebf674899ea7046ff91790c6f9f01431617ad39819db281604051808273ffffffffffffffffffffffffffffffffffffffff1673ffffffffffffffffffffffffffffffffffffffff16815260200191505060405180910390a150565b611c5980620002796000396000f3fe608060405234801561001057600080fd5b50600436106100f55760003560e01c8063715018a611610097578063b7e109a211610066578063b7e109a214610571578063c9d27afe146105df578063ca6d56dc14610619578063f2fde38b1461065d576100f5565b8063715018a6146104a35780638da5cb5b146104ad578063a5c42ef1146104f7578063aaa746bb14610515576100f5565b806342cde4e8116100d357806342cde4e8146102795780635b6beeb91461029757806364db444a146103665780636844bac5146103aa576100f5565b8063013cf08b146100fa57806308ae4b0c146101ff57806311aee3801461025b575b600080fd5b6101266004803603602081101561011057600080fd5b81019080803590602001909291905050506106a1565b604051808873ffffffffffffffffffffffffffffffffffffffff1673ffffffffffffffffffffffffffffffffffffffff168152602001878152602001868152602001858152602001806020018415151515815260200183151515158152602001828103825285818151815260200191508051906020019080838360005b838110156101be5780820151818401526020810190506101a3565b50505050905090810190601f1680156101eb5780820380516001836020036101000a031916815260200191505b509850505050505050505060405180910390f35b6102416004803603602081101561021557600080fd5b81019080803573ffffffffffffffffffffffffffffffffffffffff1690602001909291905050506107c2565b604051808215151515815260200191505060405180910390f35b6102636107e2565b6040518082815260200191505060405180910390f35b6102816107e8565b6040518082815260200191505060405180910390f35b610350600480360360208110156102ad57600080fd5b81019080803590602001906401000000008111156102ca57600080fd5b8201836020820111156102dc57600080fd5b803590602001918460018302840111640100000000831117156102fe57600080fd5b91908080601f016020809104026020016040519081016040528093929190818152602001838380828437600081840152601f19601f8201169050808301925050505050505091929192905050506107ee565b6040518082815260200191505060405180910390f35b6103a86004803603602081101561037c57600080fd5b81019080803573ffffffffffffffffffffffffffffffffffffffff16906020019092919050505061081c565b005b6104a1600480360360a08110156103c057600080fd5b81019080803573ffffffffffffffffffffffffffffffffffffffff1690602001909291908035906020019092919080359060200190929190803590602001909291908035906020019064010000000081111561041b57600080fd5b82018360208201111561042d57600080fd5b8035906020019184600183028401116401000000008311171561044f57600080fd5b91908080601f016020809104026020016040519081016040528093929190818152602001838380828437600081840152601f19601f8201169050808301925050505050505091929192905050506109b1565b005b6104ab610bae565b005b6104b5610d36565b604051808273ffffffffffffffffffffffffffffffffffffffff1673ffffffffffffffffffffffffffffffffffffffff16815260200191505060405180910390f35b6104ff610d5f565b6040518082815260200191505060405180910390f35b6105576004803603602081101561052b57600080fd5b81019080803573ffffffffffffffffffffffffffffffffffffffff169060200190929190505050610d65565b604051808215151515815260200191505060405180910390f35b61059d6004803603602081101561058757600080fd5b8101908080359060200190929190505050610dbb565b604051808273ffffffffffffffffffffffffffffffffffffffff1673ffffffffffffffffffffffffffffffffffffffff16815260200191505060405180910390f35b610617600480360360408110156105f557600080fd5b8101908080359060200190929190803515159060200190929190505050610dee565b005b61065b6004803603602081101561062f57600080fd5b81019080803573ffffffffffffffffffffffffffffffffffffffff1690602001909291905050506110e3565b005b61069f6004803603602081101561067357600080fd5b81019080803573ffffffffffffffffffffffffffffffffffffffff169060200190929190505050611224565b005b600481815481106106ae57fe5b90600052602060002090600802016000915090508060000160009054906101000a900473ffffffffffffffffffffffffffffffffffffffff1690806001015490806002015490806003015490806004018054600181600116156101000203166002900480601f0160208091040260200160405190810160405280929190818152602001828054600181600116156101000203166002900480156107925780601f1061076757610100808354040283529160200191610792565b820191906000526020600020905b81548152906001019060200180831161077557829003601f168201915b5050505050908060050160009054906101000a900460ff16908060050160019054906101000a900460ff16905087565b60056020528060005260406000206000915054906101000a900460ff1681565b60015481565b60035481565b6007818051602081018201805184825260208301602085012081835280955050505050506000915090505481565b610824611431565b73ffffffffffffffffffffffffffffffffffffffff166000809054906101000a900473ffffffffffffffffffffffffffffffffffffffff1673ffffffffffffffffffffffffffffffffffffffff16146108e5576040517f08c379a00000000000000000000000000000000000000000000000000000000081526004018080602001828103825260208152602001807f4f776e61626c653a2063616c6c6572206973206e6f7420746865206f776e657281525060200191505060405180910390fd5b6002600081548092919060010191905055508060066000600254815260200190815260200160002060006101000a81548173ffffffffffffffffffffffffffffffffffffffff021916908373ffffffffffffffffffffffffffffffffffffffff1602179055507f6a65f90b1a644d2faac467a21e07e50e3f8fa5846e26231d30ae79a417d3d26281604051808273ffffffffffffffffffffffffffffffffffffffff1673ffffffffffffffffffffffffffffffffffffffff16815260200191505060405180910390a150565b6000600480549050905080806001019150506000600482815481106109d257fe5b90600052602060002090600802019050868160000160006101000a81548173ffffffffffffffffffffffffffffffffffffffff021916908373ffffffffffffffffffffffffffffffffffffffff16021790555085816001018190555083816003018190555082816004019080519060200190610a4f929190611b09565b50816007846040518082805190602001908083835b60208310610a875780518252602082019150602081019050602083039250610a64565b6001836020036101000a03801982511681845116808217855250505050505090500191505090815260200160405180910390208190555084816002018190555060008160050160006101000a81548160ff02191690831515021790555060008160050160016101000a81548160ff0219169083151502179055507fa9ef596c73fbcfb4a78bc139b1a19c35247c1f37d2489c0513ad2dd3eb7d8c6b86846040518083815260200180602001828103825283818151815260200191508051906020019080838360005b83811015610b6a578082015181840152602081019050610b4f565b50505050905090810190601f168015610b975780820380516001836020036101000a031916815260200191505b50935050505060405180910390a150505050505050565b610bb6611431565b73ffffffffffffffffffffffffffffffffffffffff166000809054906101000a900473ffffffffffffffffffffffffffffffffffffffff1673ffffffffffffffffffffffffffffffffffffffff1614610c77576040517f08c379a00000000000000000000000000000000000000000000000000000000081526004018080602001828103825260208152602001807f4f776e61626c653a2063616c6c6572206973206e6f7420746865206f776e657281525060200191505060405180910390fd5b600073ffffffffffffffffffffffffffffffffffffffff166000809054906101000a900473ffffffffffffffffffffffffffffffffffffffff1673ffffffffffffffffffffffffffffffffffffffff167f8be0079c531659141344cd1fd0a4f28419497f9722a3daafe3b4186f6b6457e060405160405180910390a360008060006101000a81548173ffffffffffffffffffffffffffffffffffffffff021916908373ffffffffffffffffffffffffffffffffffffffff160217905550565b60008060009054906101000a900473ffffffffffffffffffffffffffffffffffffffff16905090565b60025481565b6000600560008373ffffffffffffffffffffffffffffffffffffffff1673ffffffffffffffffffffffffffffffffffffffff16815260200190815260200160002060009054906101000a900460ff169050919050565b60066020528060005260406000206000915054906101000a900473ffffffffffffffffffffffffffffffffffffffff1681565b600560003373ffffffffffffffffffffffffffffffffffffffff1673ffffffffffffffffffffffffffffffffffffffff16815260200190815260200160002060009054906101000a900460ff16610ead576040517f08c379a00000000000000000000000000000000000000000000000000000000081526004018080602001828103825260208152602001807f596f7520617265206e6f742061206d656d626572206f6620746869732044414f81525060200191505060405180910390fd5b600060048381548110610ebc57fe5b90600052602060002090600802019050600115158160070160003373ffffffffffffffffffffffffffffffffffffffff1673ffffffffffffffffffffffffffffffffffffffff16815260200190815260200160002060009054906101000a900460ff1615151415610f2c57600080fd5b6000816006018054905090508080600101915050604051806040016040528084151581526020013373ffffffffffffffffffffffffffffffffffffffff16815250826006018281548110610f7c57fe5b9060005260206000200160008201518160000160006101000a81548160ff02191690831515021790555060208201518160000160016101000a81548173ffffffffffffffffffffffffffffffffffffffff021916908373ffffffffffffffffffffffffffffffffffffffff16021790555090505060018260070160003373ffffffffffffffffffffffffffffffffffffffff1673ffffffffffffffffffffffffffffffffffffffff16815260200190815260200160002060006101000a81548160ff0219169083151502179055507f8eb81cb806dbb3d8a2f94981614331a55dfd90e06a42fdc362ca3ca96981d92f3384604051808373ffffffffffffffffffffffffffffffffffffffff1673ffffffffffffffffffffffffffffffffffffffff168152602001821515151581526020019250505060405180910390a160008090506110ca82600154611439565b905080156110dc576110db85611469565b5b5050505050565b6110eb611431565b73ffffffffffffffffffffffffffffffffffffffff166000809054906101000a900473ffffffffffffffffffffffffffffffffffffffff1673ffffffffffffffffffffffffffffffffffffffff16146111ac576040517f08c379a00000000000000000000000000000000000000000000000000000000081526004018080602001828103825260208152602001807f4f776e61626c653a2063616c6c6572206973206e6f7420746865206f776e657281525060200191505060405180910390fd5b6001600081548092919060010191905055507fb4dcb6dd550f27b5917ebf674899ea7046ff91790c6f9f01431617ad39819db281604051808273ffffffffffffffffffffffffffffffffffffffff1673ffffffffffffffffffffffffffffffffffffffff16815260200191505060405180910390a150565b61122c611431565b73ffffffffffffffffffffffffffffffffffffffff166000809054906101000a900473ffffffffffffffffffffffffffffffffffffffff1673ffffffffffffffffffffffffffffffffffffffff16146112ed576040517f08c379a00000000000000000000000000000000000000000000000000000000081526004018080602001828103825260208152602001807f4f776e61626c653a2063616c6c6572206973206e6f7420746865206f776e657281525060200191505060405180910390fd5b600073ffffffffffffffffffffffffffffffffffffffff168173ffffffffffffffffffffffffffffffffffffffff161415611373576040517f08c379a0000000000000000000000000000000000000000000000000000000008152600401808060200182810382526026815260200180611baf6026913960400191505060405180910390fd5b8073ffffffffffffffffffffffffffffffffffffffff166000809054906101000a900473ffffffffffffffffffffffffffffffffffffffff1673ffffffffffffffffffffffffffffffffffffffff167f8be0079c531659141344cd1fd0a4f28419497f9722a3daafe3b4186f6b6457e060405160405180910390a3806000806101000a81548173ffffffffffffffffffffffffffffffffffffffff021916908373ffffffffffffffffffffffffffffffffffffffff16021790555050565b600033905090565b60008061144884846002611ad4565b9050600354811061145d576001915050611463565b60009150505b92915050565b60006004828154811061147857fe5b906000526020600020906008020190508060050160009054906101000a900460ff16156114f0576040517f08c379a0000000000000000000000000000000000000000000000000000000008152600401808060200182810382526027815260200180611bfd6027913960400191505060405180910390fd5b6000809050600080905060008090505b836006018054905081101561156557600084600601828154811061152057fe5b9060005260206000200190508060000160009054906101000a900460ff1615611550578380600101945050611559565b82806001019350505b50806001019050611500565b5080821115611a93576001836001015414156118ba57600083600301541415611676578260020154471015611602576040517f08c379a000000000000000000000000000000000000000000000000000000000815260040180806020018281038252601e8152602001807f5468652044414f20646f65736e74206861766520656e6f75676820455448000081525060200191505060405180910390fd5b8260000160009054906101000a900473ffffffffffffffffffffffffffffffffffffffff1673ffffffffffffffffffffffffffffffffffffffff166108fc84600201549081150290604051600060405180830381858888f19350505050158015611670573d6000803e3d6000fd5b506118b9565b6000600660008560030154815260200190815260200160002060009054906101000a900473ffffffffffffffffffffffffffffffffffffffff169050600081905084600201548173ffffffffffffffffffffffffffffffffffffffff166370a08231306040518263ffffffff1660e01b8152600401808273ffffffffffffffffffffffffffffffffffffffff1673ffffffffffffffffffffffffffffffffffffffff16815260200191505060206040518083038186803b15801561173957600080fd5b505afa15801561174d573d6000803e3d6000fd5b505050506040513d602081101561176357600080fd5b810190808051906020019092919050505010156117cb576040517f08c379a0000000000000000000000000000000000000000000000000000000008152600401808060200182810382526028815260200180611bd56028913960400191505060405180910390fd5b8073ffffffffffffffffffffffffffffffffffffffff1663a9059cbb8660000160009054906101000a900473ffffffffffffffffffffffffffffffffffffffff1687600201546040518363ffffffff1660e01b8152600401808373ffffffffffffffffffffffffffffffffffffffff1673ffffffffffffffffffffffffffffffffffffffff16815260200182815260200192505050602060405180830381600087803b15801561187a57600080fd5b505af115801561188e573d6000803e3d6000fd5b505050506040513d60208110156118a457600080fd5b81019080805190602001909291905050505050505b5b6002836001015414156118f5576118f48360000160009054906101000a900473ffffffffffffffffffffffffffffffffffffffff166110e3565b5b600383600101541415611a19576000600560008560000160009054906101000a900473ffffffffffffffffffffffffffffffffffffffff1673ffffffffffffffffffffffffffffffffffffffff1673ffffffffffffffffffffffffffffffffffffffff16815260200190815260200160002060006101000a81548160ff021916908315150217905550600160008154809291906001900391905055507fdb4f86f4e3926c467d3434a00cc562d038163012ae34dcc94fca7c85246f1bbe8360000160009054906101000a900473ffffffffffffffffffffffffffffffffffffffff16604051808273ffffffffffffffffffffffffffffffffffffffff1673ffffffffffffffffffffffffffffffffffffffff16815260200191505060405180910390a15b600483600101541415611a5457611a538360000160009054906101000a900473ffffffffffffffffffffffffffffffffffffffff1661081c565b5b60018360050160006101000a81548160ff02191690831515021790555060018360050160016101000a81548160ff021916908315150217905550611ace565b60018360050160006101000a81548160ff02191690831515021790555060008360050160016101000a81548160ff0219169083151502179055505b50505050565b60008060018301600a0a850290506000600a6005868481611af157fe5b040181611afa57fe5b04905080925050509392505050565b828054600181600116156101000203166002900490600052602060002090601f016020900481019282601f10611b4a57805160ff1916838001178555611b78565b82800160010185558215611b78579182015b82811115611b77578251825591602001919060010190611b5c565b5b509050611b859190611b89565b5090565b611bab91905b80821115611ba7576000816000905550600101611b8f565b5090565b9056fe4f776e61626c653a206e6577206f776e657220697320746865207a65726f20616464726573735468652044414f20646f65736e74206861766520656e6f756768206f66207468697320746f6b656e546869732070726f706f73616c2068617320616c7265616479206265656e206578656375746564a26469706673582212200de859deec445654e5d6f7764ec2050f1b00a69c68e137b9dc30a20e51bedd6164736f6c63430006000033",
  "source": "pragma solidity ^0.6.0;\nimport \"@openzeppelin/contracts/access/Ownable.sol\";\nimport \"@openzeppelin/contracts/token/ERC20/IERC20.sol\";\n/**\n@title BaseDao\n@author Christopher Dixon\nThis contract is designed as a base contract for use in building out more complex DAOs.\nIt is built using two contracts from the Open Zeppelin smart-contract library:\n  Ownable.sol && IERC20.sol.\n\nThis contract is built with two goals in mind:\n\n1. The DAO should be capable of accepting and distributing both ETH and ERC20 tokens.\n\n2. The DAO will be built to inspire future Non-Token-Based Governance type DAO's\n\n@dev  All function calls are currently implement without side effects\n**/\ncontract BaseDAO is Ownable {\n\n    uint256 public memberCount; //a count of all members\n    uint256 public tokenID; //a count of all whitelisted tokens used to assign a token contracts ID\n    uint256 public threshold; //a number reperesenting the percentage threshold for how many members need to vote to trigger executeVote\n\n\n    Proposal[] public proposals; //an array of Proposal structs that stores proposal information\n\n  mapping(address => bool) public members; //a mapping that tracks if an address is a member\n  mapping(uint256 => address) public TokenWhitelist; //a mapping used to track the addresses of whitelisted tokens\n  mapping(string => uint256) public getHash;\n/**\nCONTRACT EVENTS\n**/\n  event NewProposal(uint256 propCode, string voteHash);\n  event NewMember(address newMember);\n  event MembershipRevoked(address revokedMember);\n  event TokenWhitelisted(address newWhitelist);\n  event Voted(address voter, bool);\n\n/**\nA struct for storing an individual proposals parameters\n**/\n  struct  Proposal {\n         address payable Address;\n         uint PropCode;\n         uint Amount;\n         uint TokenNumber;\n         string voteHash;\n         bool executed;\n         bool proposalPassed;\n         Vote[] votes;\n         mapping (address => bool) voted;\n     }\n\n/**\nA struct for a specific users vote information\n**/\n     struct Vote {\n             bool inSupport;\n             address voter;\n     }\n\n/**\n@notice the modifier onlyMember requires that the function caller must be a member of the DAO to all a function\n**/\n     modifier onlyMember() {\n       require(members[msg.sender], \"You are not a member of this DAO\");\n       _;\n     }\n\n/**\n@notice The constructor function is triggered when a smart-contract is deployed.\n        The constructor function can ONLY be called once.\n@param _threshold is a number 1-100 used to signify what percentage of the DAO's members need to vote before the executeVote function is fired\n@dev the constructor function automatically adds the contracts deployer as a DAO member\n**/\n     constructor (uint256 _threshold) public {\n       addMember(msg.sender);\n       threshold = _threshold;\n     }\n\n\n/**\n@notice _checkIfMember allows a front end interface to check if a user is a member so it can render the front end UI accordingly\n@param _member is the address in question\n**/\n     function _checkIfMember(address _member) public view returns(bool) {\n        return members[_member];\n      }\n\n/**\n@notice addMember is an onlyOwner function that allows the owner of this contract to add a new member to the DAO\n@param _newMem is the address of the new member\n@dev this function is designed so that the person deploying a contract can add members immediately after deployment before ownership of the DAO is transfered to the DAO itself.\n@dev the DAO MUST be set as the owner for a membership vote to work\n**/\n     function addMember(address _newMem) public onlyOwner {\n       memberCount++;\n       emit NewMember(_newMem);\n     }\n\n/**\n@notice addNewToken is an onlyOwner function that allows for a new ERC20 token contract to be added to the whitelist of token contracts that a DAO can interact with\n@param _contract is the address of the ERC20 contract being added to the whitelist of useable tokens\n@dev this function is designed so that the person deploying a contract can add token contracts immediately after deployment before ownership of the DAO is transfered to the DAO itself.\n@dev the DAO MUST be set as the owner for a \"Add Token\" vote to work\n**/\n      function addNewToken(address _contract) public onlyOwner {\n          tokenID++;\n          TokenWhitelist[tokenID] = _contract;\n          emit TokenWhitelisted(_contract);\n      }\n\n\n/**\n@notice percent is an internal function used to calculate the ratio between a given numerator && denominator\n@param _numerator is the numerator of the equation\n@param _denominator is the denominator of the equation\n@param _precision is a precision point to ensure that decimals dont trail outside what the EVM can handle\n**/\n       function _percent(uint _numerator, uint _denominator, uint _precision) internal pure returns(uint quotient) {\n           // caution, check safe-to-multiply here\n              uint numerator  = _numerator * 10 ** (_precision+1);\n           // with rounding of last digit\n              uint _quotient =  ((numerator / _denominator) + 5) / 10;\n                return ( _quotient);\n            }\n\n\n/**\n@notice _checkThreshold is an internal function used by a vote counts to see if enough of the community has voted\n@param _numOfvotes is the total number of votes a proposal has received\n@param _numOfmem is the total number of members in the DAO\n@notice this function returns a bool\n            -true if the threshold is met\n            -false if the threshold is not met\n**/\n        function _checkThreshold(uint _numOfvotes, uint _numOfmem) internal view returns(bool) {\n              uint percOfMemVoted = _percent(_numOfvotes, _numOfmem, 2 );\n                 if(percOfMemVoted >= threshold) {\n                       return true;\n                 } else {\n                        return false;\n                 }\n              }\n\n\n/**\n**@notice Proposal Codes are used to fire specific code. each number represents a different action\n**This list can be expanded as needed to facilitate other vote types\n*** the following are is a list of prop codes and their actions\n** 1. Funding Proposal: this allows the DAO to transfer ETH or ERC20 tokens in accordance with a vote\n** 2. Add Member: This allows the community to vote on whether or not a new address becomes a member\n** 3. Remove Member: This allows the community to vote on whether or not to revoke an addresses membership\n** 4. Add Token: This allows the community to vote on whether or not a new token address should be whitelisted for use\n\n@param _address is the address of either a funding recipient, a proposed new member/a member to be removed, or the address of a token to be whitelisted\n@param _propCode is the number used to determine which type of action is being voted on(see prop codes above)\n@param _amount this is the number amount for a funding proposal\n              -If this is a membership or whiteist proposal set to zero\n@param _tokenNumber is used to tell the execute vote function which type of funds to distribute\n              -ETH is type zero while ERC20s are numbered in accordance with order added\n              -set to zero if this is a membership or token whitelist vote\n@param _voteHash is an associated IPFS hash where additional information on a vote can be stored and retrieved by a dApp\n*/\n      function createProposal(\n          address payable _address,\n          uint _propCode,\n          uint _amount,\n          uint _tokenNumber,\n          string memory _voteHash\n        )\n        public\n        {\n           uint ProposalID = proposals.length;\n           ProposalID++;\n           Proposal storage p = proposals[ProposalID];\n           p.Address = _address;\n           p.PropCode = _propCode;\n           p.TokenNumber = _tokenNumber;\n           p.voteHash = _voteHash;\n           getHash[_voteHash] = ProposalID;\n           p.Amount = _amount;\n           p.executed = false;\n           p.proposalPassed = false;\n           emit NewProposal(_propCode, _voteHash);\n         }\n\n/**\n@notice the vote function allows a DAO member to vote on proposals made to the DAO\n@param _ProposalID is the number ID associated with the particular proposal the user wishes to vote on\n@param  supportsProposal is a bool value(true or false) representing whether or not a member supports a proposal\n                -true if they do support the proposal\n                -false if they do not support the proposal\n@dev this function will trigger the _checkThreshold function which determines if enough members have voted to\n          fire the executeVote function.\n**/\n      function vote(\n          uint _ProposalID,\n          bool supportsProposal\n      )\n          public\n          onlyMember\n      {\n          Proposal storage p = proposals[_ProposalID];\n          require(p.voted[msg.sender] != true);\n          uint voteID = p.votes.length;\n          voteID++;\n          p.votes[voteID] = Vote({inSupport: supportsProposal, voter: msg.sender});\n          p.voted[msg.sender] = true;\n          emit Voted(msg.sender, supportsProposal);\n          bool met = false;\n           //checks if enough members have voted\n           met = _checkThreshold(voteID, memberCount);\n           //if the threshold is met, count the votes\n          if(met) {\n            executeVote(_ProposalID);\n          }\n      }\n\n/**\n@notice the executeVote function is an internal function triggered when enough DAO members have voted on a\n        proposal(set by the threshold parameter). The executeVote function tallies the number of yea and nay votes\n        and then compares them. If yea votes outweigh nay votes than the function uses the PropCode to fufill the proposal\n**/\n      function executeVote(uint _ProposalID) internal {\n              Proposal storage p = proposals[_ProposalID];\n                   // sets p equal to the specific proposalNumber\n              require(!p.executed, \"This proposal has already been executed\");\n              uint yea = 0;\n              uint nay = 0;\n\n\n              //this for loop cycles through each members vote and adds its value to the yea or nay tally\n          for (uint i = 0; i <  p.votes.length; ++i) {\n              Vote storage v = p.votes[i];\n              if (v.inSupport) {\n                yea++;\n                   } else {\n                 nay++;\n                   }\n               }\n                  //check if the yea votes outway the nay votes\n                   if (yea > nay ) {\n                       // Proposal passed; execute the transaction\n                     if(p.PropCode == 1) { //this is a funding proposal\n                       if(p.TokenNumber == 0) { //proposal is for ETH\n                         require(address(this).balance >= p.Amount, \"The DAO doesnt have enough ETH\");\n                         p.Address.transfer(p.Amount);//transfers the appropriate amount of ETH\n                       } else { //proposal is for a ERC20 token\n                          address tokenAdd = TokenWhitelist[p.TokenNumber];\n                          IERC20 token = IERC20(tokenAdd); //sets the contract as a usable IERC20 token object\n                          require(token.balanceOf(address(this)) >= p.Amount, \"The DAO doesnt have enough of this token\");\n                          token.transfer(p.Address, p.Amount); //transfers the amount of appropriate amount of the selected ERC20 token\n                       }\n                     }\n                     if(p.PropCode == 2) { //proposal to add a new member\n                       addMember(p.Address);\n                     }\n                     if(p.PropCode == 3) { //proposal to revoke a membership\n                        members[p.Address] = false;\n                        memberCount--;\n                        emit MembershipRevoked(p.Address);\n                     }\n                     if(p.PropCode == 4) { //proposal to whitelist new ERC20 token type\n                       addNewToken(p.Address);\n                     }\n                     ///mark the proposal as executed and passed\n                     p.executed = true;\n                     p.proposalPassed = true;\n\n                 } else {\n                       // mark the proposal as executed and failed\n                    p.executed = true;\n                    p.proposalPassed = false;\n                 }\n\n            }\n\n\n}\n",
  "sourcePath": "/home/stan36/repos/BaseDAO/contracts/BaseDAO.sol",
  "compiler": {
    "name": "solc",
    "version": "0.6.0+commit.26b70077.Emscripten.clang"
  },
  "schemaVersion": "3.2.4",
  "updatedAt": "2020-09-05T20:06:29.870Z",
  "devdoc": {
    "author": "Christopher Dixon This contract is designed as a base contract for use in building out more complex DAOs. It is built using two contracts from the Open Zeppelin smart-contract library: Ownable.sol && IERC20.sol. This contract is built with two goals in mind: 1. The DAO should be capable of accepting and distributing both ETH and ERC20 tokens. 2. The DAO will be built to inspire future Non-Token-Based Governance type DAO's",
    "details": "All function calls are currently implement without side effects*",
    "methods": {
      "_checkIfMember(address)": {
        "params": {
          "_member": "is the address in question*"
        }
      },
      "addMember(address)": {
        "details": "this function is designed so that the person deploying a contract can add members immediately after deployment before ownership of the DAO is transfered to the DAO itself.the DAO MUST be set as the owner for a membership vote to work*",
        "params": {
          "_newMem": "is the address of the new member"
        }
      },
      "addNewToken(address)": {
        "details": "this function is designed so that the person deploying a contract can add token contracts immediately after deployment before ownership of the DAO is transfered to the DAO itself.the DAO MUST be set as the owner for a \"Add Token\" vote to work*",
        "params": {
          "_contract": "is the address of the ERC20 contract being added to the whitelist of useable tokens"
        }
      },
      "constructor": {
        "details": "the constructor function automatically adds the contracts deployer as a DAO member*",
        "params": {
          "_threshold": "is a number 1-100 used to signify what percentage of the DAO's members need to vote before the executeVote function is fired"
        }
      },
      "createProposal(address,uint256,uint256,uint256,string)": {
        "params": {
          "_address": "is the address of either a funding recipient, a proposed new member/a member to be removed, or the address of a token to be whitelisted",
          "_amount": "this is the number amount for a funding proposal -If this is a membership or whiteist proposal set to zero",
          "_propCode": "is the number used to determine which type of action is being voted on(see prop codes above)",
          "_tokenNumber": "is used to tell the execute vote function which type of funds to distribute -ETH is type zero while ERC20s are numbered in accordance with order added -set to zero if this is a membership or token whitelist vote",
          "_voteHash": "is an associated IPFS hash where additional information on a vote can be stored and retrieved by a dApp"
        }
      },
      "owner()": {
        "details": "Returns the address of the current owner."
      },
      "renounceOwnership()": {
        "details": "Leaves the contract without owner. It will not be possible to call `onlyOwner` functions anymore. Can only be called by the current owner.     * NOTE: Renouncing ownership will leave the contract without an owner, thereby removing any functionality that is only available to the owner."
      },
      "transferOwnership(address)": {
        "details": "Transfers ownership of the contract to a new account (`newOwner`). Can only be called by the current owner."
      },
      "vote(uint256,bool)": {
        "details": "this function will trigger the _checkThreshold function which determines if enough members have voted to fire the executeVote function.*",
        "params": {
          "_ProposalID": "is the number ID associated with the particular proposal the user wishes to vote on",
          "supportsProposal": "is a bool value(true or false) representing whether or not a member supports a proposal -true if they do support the proposal -false if they do not support the proposal"
        }
      }
    },
    "title": "BaseDao"
  },
  "userdoc": {
    "methods": {
      "_checkIfMember(address)": {
        "notice": "_checkIfMember allows a front end interface to check if a user is a member so it can render the front end UI accordingly"
      },
      "addMember(address)": {
        "notice": "addMember is an onlyOwner function that allows the owner of this contract to add a new member to the DAO"
      },
      "addNewToken(address)": {
        "notice": "addNewToken is an onlyOwner function that allows for a new ERC20 token contract to be added to the whitelist of token contracts that a DAO can interact with"
      },
      "constructor": "The constructor function is triggered when a smart-contract is deployed. The constructor function can ONLY be called once.",
      "createProposal(address,uint256,uint256,uint256,string)": {
        "notice": "Proposal Codes are used to fire specific code. each number represents a different action**This list can be expanded as needed to facilitate other vote types*** the following are is a list of prop codes and their actions** 1. Funding Proposal: this allows the DAO to transfer ETH or ERC20 tokens in accordance with a vote** 2. Add Member: This allows the community to vote on whether or not a new address becomes a member** 3. Remove Member: This allows the community to vote on whether or not to revoke an addresses membership** 4. Add Token: This allows the community to vote on whether or not a new token address should be whitelisted for use"
      },
      "vote(uint256,bool)": {
        "notice": "the vote function allows a DAO member to vote on proposals made to the DAO"
      }
    }
  }
}